:100000003821040000000000000000000000000093
:1000100000000000000000000000000000000000E0
:1000200000000000000000000000000000000000D0
:1000300000000000000000000000000000000000C0
:1000400000000000000000000000000000000000B0
:10427000CF8B2000F0FF270020A0B7001000200007
:1042800034A0B700400020004420B7000200FA002C
:104290005C460200000000008A1F78008B1F780037
:1042A0008C1F78008D1F7800000020000007980008
:1042B000F0FF2000C0A2B700F0FF2F00D2A2B7008D
:1042C000C622EF00D822EF0088FE07001A20EF0078
:1042D000FCFF2F000A002800100020008005780055
:1042E000D1FB0700FA83200021FF07001420EF0014
:1042F000C6FE07004C0120009B0120009A8120008F
:1043000000FD0700605D2F00110020000006BE00C8
:104310000B0620001420EF0010002000801F780002
:10432000DCFE07002F00B100E7FC07000040E200C0
:10433000250032001B0020001420EF0099F1070037
:104340001A20EF001820EF001620EF001A002000BE
:104350000020EF00801F78000020EF00801F780011
:1043600048F007004F00B100BD0720002C092000D5
:104370005B042000BA06200005FF0700605D2F00E7
:10438000110020000006BE000B0620001420EF00E4
:1043900010002000801F7800BEFE07002F00B10033
:1043A0000A802000F2FE070068142000075C280045
:1043B0000E20ED00FEFF3A001020ED00FCFF3A0059
:1043C00000000000000000000E059000FEFC070049
:1043D0000E0090000020EC00000798006E00E10045
:1043E000020034000020EF0000079800CEFF3700E5
:0843F0000080FA00FFFF370016
:103CEC008A1F78008B1F78008C1F78008D1F78003E
:103CFC00C062EF00407420009040780000CEB3000A
:103D0C0080C060004074200001487800E001200071
:103D1C0046A7B7004074200090407800F0C3B30071
:103D2C0080C0600040742000014878009801200099
:103D3C0077A026000E20ED00FEFF3A001020ED00CB
:103D4C00FCFF3A00EC792100AB8521006A88210048
:103D5C00E3FC07000B1420000A0F2000A5FD070050
:103D6C009EFD0700CDC0B300DCC0B3000B142000D7
:103D7C000A0F20008AFD07000A3220004BFE0700C4
:103D8C000A802E003B002000CFFD07006D8E210025
:103D9C002C8F21002B772100CA8F210079FD070081
:103DAC0018012000F76A24000E20ED00FEFF3A00F7
:103DBC001020ED00FCFF3A001A20EF00FCFF2F0052
:103DCC000A002800100020008005780013FD070071
:103DDC00DD2F20004C0420008B3020005A092000DD
:103DEC0018F50700CF0678004F067800CF0578004D
:083DFC004F05780000000600ED
:1030EC000000FA004A4588005B4588007C45880052
:1030FC0010002000D04288000080FA00000006007A
:00310C00C3
:10310C00CBE2A900402C20000A487800D7A2A900E5
:08311C00D7A2A8000000060084
:1030B400CBE2A800402C20000A487800D7A2A9003F
:0830C400D7A2A80000000600DD
:1030CC000000FA00CBE2A900402C20000A4878004E
:1030DC00D7A2A900D7A2A8000080FA000000060021
:0030EC00E4
:103178000000FA00CBE2A800402C20000A487800A2
:10318800D7A2A900D7A2A8000080FA000000060074
:0031980037
:103198000000FA00E3F60700E2F60700D062A90093
:1031A800D782A800CBE2A9000A80FB00C4A2B7001E
:1031B800D7A2A900D7A2A800D062A8000080FA0070
:0431C80000000600FD
:100D2C00A70020000E20ED00FEFF3A00000000009E
:080D3C000000000000000600A9
:103124000000FA00D062A900D782A800CBE2A80070
:103134000A80FB00C4A2B700D7A2A900D7A2A800A6
:10314400D062A800F8F60700F7F607000080FA003E
:043154000000060071
:103158000000FA00CBE2A9000A80FB00C4A2B70075
:10316800D7A2A900D7A2A8000080FA000000060094
:0031780057
:102F1C000000FA00CBE2A8000A80FB00C4A2B700B4
:102F2C00D7A2A900D7A2A8000080FA0000000600D2
:002F3C0095
:102F3C00CBE2A800400120000020EC00904078007B
:102F4C00C02D200001487800402C20000A48780051
:0C2F5C00D7A2A900D7A2A8000000060020
:102EE4000000FA003302AF0001003700FDFF370095
:0C2EF400AA1188000080FA00000006000F
:102F00000000FA002302AF0001003700FDFF370088
:0C2F10002A1188000080FA000000060072
:102FC0000000FA00CBE2A800C850DE00402C200030
:102FD00001487800D7A2A900D7A2A800402C200061
:102FE0000A487800D7A2A900D7A2A8000080FA005A
:042FF00000000600D7
:102FF4000000FA008A1F78004B50DE008040780001
:103004000180FB004300DD00804078000180FB006C
:103014004700DE006104E10002003A0067C040009E
:1030240001003700014078008A1F780000457800CD
:103034003B0007004F0578004550DE0080407800D3
:103044000180FB004200DD00804078000180FB002D
:103054004700DE006104E10002003A0063C0400062
:1030640001003700014078008A1F7800004578008D
:103074002B0007004F0578004350DD0080407800A6
:103084000180FB004700DE006104E10002003A0019
:1030940067C0400001003700014078000045780017
:1030A4001F0007004F0578000080FA0000000600AA
:0030B4001C
:102F68000000FA00CBE2A8002A168800D7A2A90020
:0C2F7800D7A2A8000080FA0000000600AC
:102F84000000FA00CBE2A800400120000020EC0081
:102F9400104078000080FB00C4A2B700D7A2A900AB
:102FA400D7A2A8000A80FB00C4A2B700D7A2A90038
:0C2FB400D7A2A8000080FA000000060070
:103400000000FA008A1F78008B1F78008C1F78005C
:103410008D1F7800718520000020EF008048780023
:10342000D04280006100E100060032006086210089
:1034300040458800C08B210050458800007E210057
:1034400070458800BA458800CB4588000B50E100E4
:10345000030036000020EF006045880002003700BE
:10346000A0052000604588001B0020001420EF000C
:103470004CF507001A20EF001820EF001620EF008F
:103480001420EF000020EF00801F78000020EF00E4
:10349000801F7800FBF307004F00B1001620EF00FB
:1034A0001420EF0002F407000020EF002044880001
:1034B00004F40700008B2000A0458800CF067800A8
:1034C0004F067800CF0578004F0578000080FA009D
:0434D00000000600F2
:1009A4000000FA008A4588006058E10003003A001C
:1009B4001000200090458800010037009B45880006
:0809C4000080FA0000000600AB
:100484000000FA004EB89700BEB897001A438800DF
:100494002B4388003C4388000D438800E0428800D9
:0C04A400F14288000080FA000000060011
:1004B0000000FA004A4488007B4388000080FA006C
:0404C0000000060032
:1004C4000000FA008A1F78008B1F7800D022A90050
:1004D400CC22A900CBE2A800C7E2A900D062A80000
:1004E400CC62A900D382A900D3A2A900D782A80014
:1004F400D7A2A800C022EF00CCFF0700D022A8009A
:10050400CAFF0700C9FF07001620EF00AACEB300F8
:10051400CDFF07000BC2B300BACEB300CAFF070079
:10052400CBC0B300CACEB300C7FF07004BCCB300A7
:10053400DACEB300C4FF07000BC4B3008ACEB30005
:10054400C1FF07008BC3B3009ACEB300BEFF070000
:100554001BC0B3001ACFB300BBFF07000BC1B3002D
:100564002ACFB300B8FF07003BCAB3007AC2B30076
:10057400B5FF07001620EF000AC4B300B2FF07005E
:100584001620EF001AC4B300AFFF07001BC0B3006E
:100594002AC4B300ACFF07003BC1B3003AC4B300A4
:1005A400A9FF07000BC1B3004AC4B300A6FF0700AC
:1005B4006BC2B3005AC4B300A3FF07008BC0B300DF
:1005C4006AC4B300A0FF07001BC5B3007AC4B3001C
:1005D4009DFF07002BC0B3008AC4B3009AFF070035
:1005E4002BC1B3009AC4B30097FF07008BC1B300BB
:1005F400AAC4B30094FF07009BC1B300BAC4B300FC
:1006040091FF07004BC1B300CAC4B3008EFF0700BB
:100614009BC1B3000AC5B3008BFF0700FBC2B30044
:100624001AC5B30088FF0700CBC2B3002AC5B300C4
:1006340085FF0700EBC3B3003AC5B30082FF070090
:10064400FBC3B3004AC5B3007FFF0700FBC3B3007D
:100654005AC5B3007CFF0700EBC2B3006AC5B30000
:1006640079FF07007BC7B3007AC5B30076FF0700A4
:10067400BBC0B3008AC5B30073FF07006BC0B300EF
:100684009AC5B30070FF07007BC0B300AAC5B300CE
:100694006DFF0700DBC0B300BAC5B3006AFF0700F3
:1006A400DBC1B300CAC5B30067FF0700CBCCB300FE
:1006B400DAC5B30064FF0700A1052000C08A20004A
:1006C4001008E1000D003A001620EF004AC0B30004
:1006D4005DFF0700FBCEB3005AC0B3005AFF07000A
:1006E4001BC0B3008AC0B30057FF0700FBC3B300AD
:1006F4009AC0B30054FF07000C0037001BC0B300BE
:100704004AC0B30050FF0700FBC3B3005AC0B30094
:100714004DFF07001620EF008AC0B3004AFF070010
:10072400FBCEB3009AC0B30047FF0700A105200029
:10073400C08A20001008E1000C003A0080852000E7
:10074400104078006104E10004003A008BCCB3004F
:100754006AC1B3003CFF0700030037008BC0B3003D
:100764006AC1B30038FF07000B0037008085200002
:10077400104078006104E10004003A008BCAB30021
:100784006AC1B30030FF0700030037008BC6B30013
:100794006AC1B3002CFF0700BBC1B300BAC1B300E8
:1007A40029FF07001BC0B300AAC1B30026FF07003E
:1007B400FBC2B3004AC2B30023FF07007BC5B300EA
:1007C4005AC2B30020FF0700DBC8B3003AC2B3002B
:1007D4001DFF07006BC3B3008AC1B3001AFF0700F3
:1007E4001BC0B3009AC1B30017FF07001620EF0027
:1007F4001AC0B30014FF07008BC8B300FAC1B300DA
:1008040011FF0700FDFE07000BC8B300FAC1B300D7
:100814000DFF0700F9FE07000BC9B300FAC1B300CE
:1008240009FF0700F5FE07000BCDB300FAC1B300C2
:1008340005FF0700F1FE07005BC0B3007AC1B300F7
:1008440001FF07001620EF006AC3B300FEFE070095
:100854008BC3B3008AC2B300FBFE0700ECFE0700A3
:10086400EBFE0700EAFE0700E9FE0700CBC3B30076
:100874008AC2B300F4FE0700CF0578004F05780064
:080884000080FA0000000600EC
:1004300018012000F76A24000E20ED00FEFF3A00AC
:0C0440001020ED00FCFF3A000000060058
:10044C000000FA008A1F7800D062A9008B1F780088
:10045C004045800000000100CF0578000B45780076
:10046C005045800000000100D062A8004F057800C4
:08047C000080FA0000000600F8
:1004000057052D000E20ED00FEFF3A000000000011
:0404100000000600E2
:1004140028002000A70A2A000E20ED00FEFF3A0063
:0C0424001020ED00FCFF3A000000060074
:1033E800F0FF2C002CA3B700F0FF2C002AA3B70095
:0833F8007DF50700000006004E
:1009F0000000FA0060632000D0458800000E20004F
:100A000020A3B7002143A9002223EF00F0F3210027
:100A100024A3B7003223EF003023EF002E23EF0092
:0C0A200021E3A8000080FA00000006009E
:1033AC000000FA0040382000D04488002A458800EC
:1033BC003B458800908920000C48780080892000CB
:1033CC000D4878000020EF00104588000020EF0029
:0C33DC00E04488000080FA0000000600B9
:1036B8000000FA00DA4488000080FA0000000600E2
:0036C80002
:1034D4000800FA002077210080448800C08F210072
:1034E400B0448800208F210060448800608E210051
:1034F400704488003022EF000000280032A2B70098
:103504003062A90048F507000001BE00803E20009B
:10351400010020002CF507000001BE00510020002E
:10352400600047000A88BE008100E90003003500FE
:103534001018D0001090D200FBFF3700829FBE000D
:103544008A9FBE000200BE000E0190009E01900002
:103554000002EB007EF507004F05BE004F01BE00E0
:1035640020079800310798008A9FBE000200BE0021
:103574000E0190009E0190000002EB004BF5070045
:103584004F05BE008001780001027800600047000A
:10359400B0007800200178000201D1008180D300BE
:1035A400640047003008E1002090E100040031008D
:1035B40061804100E0004A000001BE0002003700C3
:1035C4000301780084017800028071002F003A0022
:1035D40015F507000001BE00803E20000100200018
:1035E400F9F407000001BE0031002000600047002C
:1035F4000A88BE008100E900030035001018D000DD
:103604001090D200FBFF3700829FBE000200BE0074
:103614000E0190009E0190000002EB004CF50700A3
:103624004F01BE0020079800310798000200BE0039
:103634000E0190009E0190000002EB001BF50700B4
:10364400800178000102780060004700B000780033
:10365400200178000201D1008180D300640047007A
:103664003008E1002090E100040031006180410055
:10367400E0004A000001BE000200370003017800A8
:10368400840178003062A800000037006100510016
:10369400E0805900C01188003222A90031E2A8005C
:1036A4003342A80061F3070060F307000080FA00CA
:0436B400000006000C
:0C0A2C0000A02F000100200000000600C8
:1009CC000000FA00020AB800500088000200B800CB
:1009DC0081004200032AB800810042000080FA0026
:0409EC000000060001
:100B54000000FA0002000700FE0504000000000087
:100B64000800E20002003A0010000700000006003E
:100B7400811F78000200E20002003D0060001000C6
:100B8400E08018000600E20002003D006001110050
:100B9400E0811900050007004F00E00002003B005F
:100BA40060001000E080180000000600020007004A
:100BB4000480BE00000006006022B8000602200087
:100BC4000000D0008180D2000482D2008582D2004D
:100BD4000000A8000202520083825A0003003B0076
:100BE4000202420083824A000000A1000603E900D9
:100BF400F3FF3A00000006000080FA00000006003F
:000C0400F0
:100AB0000000FA0002000700A60504000000000084
:100AC0000800E20002003A001000070000000600E3
:100AD000839F68000200E20002003D0060001000F9
:100AE000E08018000600E20002003D0060011100F5
:100AF000E0811900050007004F00E00002003B0004
:100B000060001000E0801800000006006022B800BD
:100B1000060220000000D0008180D2000482D200B2
:100B20008582D2000000A8000202520083825A008F
:100B300003003B000202420083824A000000A10041
:100B40000603E900F3FF3A00000006000080FA0007
:040B5000000006009B
:103390000000FA00BA4488008B4488006C4488001E
:0C33A0007D4488000080FA000000060058
:1031F8000000FA0000000000000000003682BF0056
:083208000080FA00000006003E
:1031E4000000FA003282BF00610060000080FA0033
:0431F40000000600D1
:1031CC000000FA000020EF003302AF000020EC00FA
:0831DC000080FA00000006006B
:103210000000FA0000000000000000002682BF004D
:083220000080FA000000060026
:10337C000000FA002282BF00610060000080FA00A9
:04338C000000060037
:103364000000FA000020EF002302AF000020EC0070
:083374000080FA0000000600D1
:103228000400FA008A1F78008B1F78000A079800AC
:103238001B0798004A4388005B43880060004700EA
:103248008C1F78002B0020000C002000000578005F
:10325800F7F507000E0090009E009000A10188007D
:10326800104078000080FB00904388006000470011
:103278001B0020000C00200000057800ECF507007A
:103288000E0090009E009000A10188001040780078
:103298000080FB00C800DD00208720001088400067
:1032A800600047001B0020000C002000000578008B
:1032B800DFF507000E0090009E009000A101880035
:1032C800104078000080FB008043880060004700C1
:1032D8001B0020000C00200000057800D4F5070032
:1032E8000E0090009E009000A10188001040780018
:1032F8000080FB00C800DD00008720001088400027
:10330800600047001B0020000C002000000578002A
:10331800C7F507004F0678000E0090009E00900049
:10332800A1018800104078000080FB00304488002C
:103338005C4488006D4388009185200010C0B3006C
:10334800804878000020EF0020448800CF057800EE
:0C3358004F0578000080FA00000006001D
:100A38000000FA000A0178006200450010407800C2
:100A48000000AF0002003700610041001074A100EF
:100A5800E2004100114078000080FB004100DE0008
:100A6800804878001299450012114E00E2004100BA
:100A7800114078000080FB004100DD0080487800CC
:100A8800610041001040780000E0AE00020037002D
:100A9800620041001004A000610041001074A00031
:080AA8000080FA0000000600C6
:101250000000FA00FA4488000B4588009C4488008E
:0C126000AD4488000080FA000000060089
:103F70008A1F7800A5F40700DA002000D9FB0700AB
:103F8000AA002000D7FB07004F05780000000600BC
:003F900031
:10120C000000FA000220EF001A4078006004E100B0
:10121C000A0032008A1F78000085FB002E070700A9
:10122C004F05780061C04000804078000080FB00D2
:10123C000000450010407800F4FF37000080FA00F1
:04124C000000060098
:103E0C000000FA008B1F7800D062A9008A1F78008E
:103E1C001620EF001420EF00A045800000000100E8
:103E2C004F0578000220EF00808B20001008E10085
:103E3C00110031000020EF0000017800608B2000A1
:103E4C001010E1000A003100811F7800821F7800F9
:103E5C008A1F780070458000000001004F05780033
:103E6C004F017800CF0078000420EC00F3FF3700FE
:103E7C000220EC00ECFF3700D062A800CF057800E0
:083E8C000080FA0000000600AE
:101160000000FA008A1F78008A9FBE002AC0B300E0
:1011700040458000000001004F05BE0040012000F6
:101180000020EC008A9FBE0010457800504580008A
:10119000000001003AC0B30040458000000001009B
:1011A0004F05BE008B1F78005045800000000100F5
:1011B0006AC0B3004045800000000100CF05780000
:1011C000600120000020EC008B1F780010457800A3
:1011D00050458000000001007AC0B3004045800007
:1011E00000000100CF0578000B45780050458000D5
:1011F000000001002AC2B300404580000000010049
:0C1200004F0578000080FA000000060096
:10126C000000FA008A1F78008A9FBE00AAC2B30051
:10127C0040458000000001004F05BE0040012000E9
:10128C000020EC008A9FBE0010457800504580007D
:10129C00000001004F05BE008B1F780050458000F8
:1012AC0000000100BAC2B3004045800000000100FC
:1012BC00CF057800600120000020EC008B1F780027
:1012CC00104578005045800000000100CF057800E3
:1012DC000B4578005045800000000100CAC2B300E5
:1012EC0040458000000001004F0578000080FA00A6
:0412FC0000000600E8
:1014BC000000FA008A1F78008A9FBE00AAC2B300FF
:1014CC0040458000000001004F05BE004850DE0082
:1014DC008A9FBE0000457800504580000000010046
:1014EC004F05BE008B1F78005045800000000100A6
:1014FC00BAC2B3004045800000000100CF0578005F
:10150C004858DE008B1F780000457800504580005D
:10151C0000000100CF0578000B4578005045800095
:10152C0000000100CAC2B300404580000000010069
:0C153C004F0578000080FA000000060057
:10143C000000FA008A1F78008A1F7800AAC2B30045
:10144C00520707004F0578004850DE008A1F7800CD
:10145C0000457800300707004F0578002E0707007D
:10146C003AC0B3002C070700FAC1B3002A070700E3
:10147C00BAC2B300450707004858DE0000457800A3
:10148C00250707000B457800230707001AC0B30097
:10149C0021070700FACDB3001F070700CAC2B3002B
:1014AC003A0707004F0578000080FA00000006009C
:0014BC0030
:101300000000FA008A1F7800A1052000C08A200092
:101310001008E10022003A008A9FBE002AC0B300F4
:1013200040458000000001004F05BE004850DE002F
:101330008A9FBE00004578005045800000000100F3
:101340003AC0B30040458000000001004F05BE00D8
:101350008B1F780050458000000001006AC0B30078
:101360004045800000000100CF0578004858DE00AD
:101370008B1F780000457800504580000000010078
:101380007AC0B3004045800000000100CF0578001E
:101390000B45780050458000000001002100370017
:1013A0008A9FBE002AC0B3004045800000000100B3
:1013B0004F05BE004858DE008A9FBE0000457800F9
:1013C00050458000000001003AC0B3004045800055
:1013D000000001004F05BE008A1F78000B45780011
:1013E00050458000000001006AC0B3004045800005
:1013F000000001004F0578004850DE008A1F780089
:101400000045780050458000000001007AC0B3001C
:1014100040458000000001004F05780050458000E5
:10142000000001002AC2B300404580000000010016
:0C1430004F0578000080FA000000060064
:101548000000FA008A1F78008A9FBE00AAC2B30072
:1015580040458000000001004F05BE004850DE00F5
:101568008A9FBE00004578005045800000000100B9
:101578004F05BE008B1F7800504580000000010019
:10158800CF057800A1052000C08A20001008E100DE
:1015980009003A008B1F78001AC0B300504580003C
:1015A80000000100FAC0B3005045800000000100AF
:1015B800CF057800080037008B1F78001AC0B300E9
:1015C8005045800000000100FACDB300504580006E
:1015D80000000100CF0578008B1F7800BAC2B30065
:1015E8004045800000000100CF0578004858DE0023
:1015F8008B1F7800004578005045800000000100EE
:10160800CF0578000B4578005045800000000100A8
:10161800A1052000C08A20001008E10007003A0058
:101628001AC0B3005045800000000100FACDB30095
:101638005045800000000100060037001AC0B300C2
:101648005045800000000100FAC0B30050458000FA
:1016580000000100CAC2B30040458000000001003C
:0C1668004F0578000080FA00000006002A
:102DFC000000FA008A1F78008A9FBE00AAC2B300A6
:102E0C0040458000000001004F05BE004850DE0028
:102E1C008A9FBE00004578005045800000000100EC
:102E2C004F05BE008B1F780050458000000001004C
:102E3C00BAC2B3004045800000000100CF05780005
:102E4C004858DE008B1F7800004578005045800004
:102E5C0000000100CF0578000B457800504580003C
:102E6C0000000100CAC2B300404580000000010010
:0C2E7C004F0578000080FA0000000600FE
:102D70000000FA008A1F78008A9FBE00AAC2B30032
:102D800040458000000001004F05BE004850DE00B5
:102D90008A9FBE0000457800504580000000010079
:102DA0004F05BE008B1F78005045800000000100D9
:102DB000BAC2B3004045800000000100CF05780092
:102DC0004858DE008B1F7800004578005045800091
:102DD00000000100CF0578000B45780050458000C9
:102DE00000000100CAC2B30040458000000001009D
:0C2DF0004F0578000080FA00000006008B
:102CE4000000FA008A1F78008A9FBE00AAC2B300BF
:102CF40040458000000001004F05BE004850DE0042
:102D04008A9FBE0000457800504580000000010005
:102D14004F05BE008B1F7800504580000000010065
:102D2400BAC2B3004045800000000100CF0578001E
:102D34004858DE008B1F780000457800504580001D
:102D440000000100CF0578000B4578005045800055
:102D540000000100CAC2B300404580000000010029
:0C2D64004F0578000080FA000000060017
:103704000000FA008B1F7800608B20001058E10045
:103714000100390028003700808B20001060E10090
:1037240001003900240037000220EF008A1F7800CE
:103734000B0578008C0578005CF307004F057800D2
:10374400010045001004E0001B0032004088200006
:103754001000E0000C00320001004500811F7800D9
:103764008C1F78008A9FBE001085FB00C0F70700FD
:103774004F05BE004F067800CF00780061804000FE
:10378400800078000B00370001004500811F78009D
:103794008C1F78008A9FBE001085FB0073FA070017
:1037A4004F05BE004F067800CF00780061804000CE
:1037B40080007800E2FF3700CF0578000080FA002F
:0437C40000000600FB
:101674001800FA008A1F78008B1F78008C1F7800EE
:101684008D1F780000002000200F9800000020002B
:1016940060579800208720001050E10001003100BD
:1016A4001F013700008720001050E10001003600C0
:1016B4001B01370020872000100055004202DD0086
:1016C400004480001144800068014000E08148002B
:1016D400040078008000EB00000041008180490094
:1016E4004C0020000005BE0083FC0700408720005A
:1016F400000F98000E0890001043780026579800B9
:101704000E0890000020EC001081FB008001EB002B
:101714000E08900000A0EC00104078000080FB0050
:101724004800DD008000EB00000241008182490096
:101734000E08900063004000104078000080FB0019
:10174400020120000200DD008000EB0000014200E5
:1017540081814A000188200064004700311841005B
:10176400219049000680FB00C381DE0062882000CE
:101774001218B80050079800720047001080FB0050
:1017840082002000110009000200D8000100780046
:101794000000E200040032005E0190006188200035
:1017A4006A004700110841005E009000700798002D
:1017B40068004700800678005E0690002E059000C1
:1017C400BE059000F143800001000100000F980065
:1017D4004E0190008001EB00E400470064004700E4
:1017E40031184100219049005E019000E800470053
:1017F4006A004700110851000020EF0060079800BC
:10180400604380006000E10063003A0070438000A0
:10181400100798000020EF0010479800610047006F
:101824009080FB00608820001008E1005600310021
:1018340040448000200F98001620EF000020EF00A5
:10184400004798008E40900072004700100CE100A1
:1018540046003100605CE1002C003A00EE0090008C
:101864006C00470061884000CE0090006E00470085
:101874001008E1001C003100EE00900068004700F1
:101884001008E100180036001000200060079800DE
:10189400680047008A1F7800800678005E06900082
:1018A4002E059000BE059000F14380000100010068
:1018B4004F057800000F98005E00900070079800B4
:1018C4004E0190008001EB00E400470064004700F3
:1018D40031184100219049005E019000E800470062
:1018E4006A004700110851000E089000104078006B
:1018F400605798008E08900070004700618840008F
:101904001BC0B3000B417800010037000B41780085
:10191400760047009080FB000280FB00008060009E
:1019240008003200821F78008A1F78005C4480001F
:101934009E0590002E0D9000D3FB07004F05780004
:101944004F017800AE0890007400470061884000A1
:101954000280FB004100DD00804578008E4090004D
:101964006000470061C84000B6FF37009E00900049
:1019740062004700618840009E409000610047007B
:1019840061C84000A5FF3700AE08900080882000A1
:1019940061884000620037004044800010079800CE
:1019A4000020EF0010479800610047009080FB0082
:1019B400608820001008E100560031007043800068
:1019C400200F98001620EF000020EF000047980039
:1019D4008E40900072004700100CE1004600310078
:1019E400605CE1002C003A00EE0090006C004700BF
:1019F40061884000CE0090006E0047001008E100AE
:101A04001C003100EE009000680047001008E1005F
:101A14001800360010002000600798006800470096
:101A24008A1F7800800678005E0690002E059000DC
:101A3400BE059000F1438000010001004F057800CD
:101A4400000F98005E009000700798004E0190000F
:101A54008001EB00E40047006400470031184100B6
:101A6400219049005E019000E80047006A004700A9
:101A7400110851000E08900010407800605798003B
:101A84008E08900070004700618840001BC0B300BE
:101A94000B417800010037000B41780076004700C5
:101AA4009080FB000280FB00008060000800320090
:101AB400821F78008A1F78005C448000AE0D90007D
:101AC4001E05900070FB07004F0578004F01780059
:101AD400AE08900074004700618850000280FB004B
:101AE4004100DD00804578008E4090006000470092
:101AF40061C84000B6FF37009E00900062004700B6
:101B0400618840009E4090006100470061C8400029
:101B1400A5FF3700AE089000E086200061885000E1
:101B2400CF0678004F067800CF0578004F0578007F
:081B34000080FA000000060029
:1008FC000400FA008D1F7800408720001007980034
:10090C006060E10021003600600047008C1F780019
:10091C008A9FBE0080067800F14380000100010030
:10092C004F05BE004F067800800178000220EF00D2
:10093C0001017800600047001010E1000A0031004E
:10094C001E009000134878009E0090006200470043
:10095C006188400061804100E10041008001780025
:10096C0001017800F3FF37006000470010005600CB
:10097C00000678000E0090008000EB00000045009F
:10098C0081804D000005BE00DDFF3700CF067800EA
:08099C000080FA0000000600D3
:10088C000000FA008A1F78006050E1000400350077
:10089C00608B20001050E100010031000100370096
:1008AC00100037006058E10004003500808B2000F8
:1008BC001058E10001003100010037000900370039
:1008CC00D062A9008C1F7800A045800000000100B8
:1008DC004F0678000C057800704580000000010080
:1008EC00D062A8004F0578000080FA0000000600D6
:0008FC00FC
:102170001A00FA008A1F78008B1F78008C1F7800E5
:102180008D1F780000002000300F98000000200014
:10219000005F980090852000104078006004E10006
:1021A0000C003A00000028008A1F78001A20EF0077
:1021B0001820EF000005780010002000800578004E
:1021C000190407004F0578009185200010C0B30066
:1021D00080487800208720001050E1000100310085
:1021E000DA003700008720001050E10001003600BF
:1021F000D600370020872000100055004201DD0086
:1022000040438000514380004007980051079800E8
:10221000E800410068004700810578000006EB00F7
:102220000005780004FA07004E009000DE009000E0
:10223000A1018800104078000080FB00200F98006A
:102240004E009000DE009000000F9800110F9800E3
:10225000700047001B0020000C00200000057800E3
:10226000F5F907000E0890009E089000A101880073
:10227000104078008081FB000002EB0070004700F6
:102280001B0020000C00200000057800EAF9070080
:102290000E0890009E089000A10188001040780070
:1022A0000080FB004800DD008000EB008402780025
:1022B000030278000002420081824A007000470059
:1022C0001B0020000C00200000057800DAF9070050
:1022D0000E0890009E089000A10188001040780030
:1022E0000080FB00020120000200DD008000EB0006
:1022F0000001420081814A00404380005143800038
:1023000060079800710798006C004700820578000C
:102310000306780000057800C7F9070060438000D5
:102320006000E10045003A007043800020079800FB
:102330000020EF00100798009E00900060882000A9
:102340001008E1003900310040448000300F98004F
:102350000020EF00604798000020EF000007980081
:102360008E009000740047001008E1002800310042
:102370006E4090006004E1000E003A006E00900094
:10238000FE009000A101880010407800005F9800D6
:102390006C0047008A1F78001B0020000C00200002
:1023A00000057800A4F907004F05780010C0B300BD
:1023B00060479800780047009080FB006600470067
:1023C0001080FB0000806000060032008A1F780049
:1023D0005C448000AE0590003E0D90002BF9070094
:1023E0004F057800BE0890007600470061884000E5
:1023F000660047001080FB004100DD006047980048
:102400008E0090006000470061884000D4FF3700D4
:10241000AE00900064004700618840009E0090007C
:102420006200470061884000C3FF3700BE0890008B
:1024300080882000618840004400370040448000CC
:10244000200798000020EF00100798009E009000E1
:10245000608820001008E1003900310070438000DE
:10246000300F98000020EF00604798000020EF0038
:10247000000798008E009000740047001008E100EB
:10248000280031006E4090006004E1000E003A0028
:102490006E009000FE009000A101880010407800BE
:1024A000005F98006C0047008A1F78001B00200026
:1024B0000C002000000578005FF907004F05780048
:1024C00010C0B30060479800780047009080FB0080
:1024D000660047001080FB000080600006003200AC
:1024E0008A1F78005C448000BE0D90002E0590008D
:1024F000E6F807004F057800BE0890007600470018
:1025000061885000660047001080FB004100DD003C
:10251000604798008E00900060004700618840008E
:10252000D4FF3700AE00900064004700618840008F
:102530009E0090006200470061884000C3FF3700A2
:10254000BE089000E086200061885000CF06780029
:102550004F067800CF0578004F0578000080FA001C
:042560000000060071
:103E94000400FA004EB99700608B20001050E10036
:103EA400010039002F003700808B20001058E100FA
:103EB400010039002B0037000C0798001D079800FB
:103EC40060004700821F78008C9FBE008A9FBE005E
:103ED4001B0020000C00200000057800D5F207002C
:103EE4004F05BE004F06BE004F0178000E00900043
:103EF4009E009000A1018800104078000080FB0023
:103F040010003700821F780097F907002F00B100D6
:103F140014003700821F780087FA07002F00B100D1
:103F240010003700821F780003F707002F00B1004C
:103F34000C003700821F7800D9F707002F00B1006A
:103F4400080037006100E100EEFF32006400E10088
:103F5400F0FF32006800E100F2FF32007000E1007F
:0C3F6400F4FF32000080FA0000000600AC
:10256C002600FA008C1F78008D1F78004EB897005B
:10257C0040BF9F004C0F98005D0F980078004700FB
:10258C00201798008A9FBE002B0020000C00200012
:10259C000005780025F907004E089000DE08900031
:1025AC00A1018800104078000080FB0030079800E3
:1025BC00780047001B0020000C002000000578006C
:1025CC001AF907004E089000DE089000A10188005F
:1025DC00104078000080FB004801DD00E600470059
:1025EC006600470011084100780047001B002000DE
:1025FC000C002000000578000CF907004E08900034
:10260C00DE089000A1018800104078000080FB00DB
:10261C0020079800780047001B0020000C002000C9
:10262C000005780001F907004E089000DE089000C4
:10263C00A1018800104078000080FB004801DD00FB
:10264C00E40047006400470011084100780047008F
:10265C001B0020000C00200000057800F3F8070098
:10266C00720147004E089000DE089000A10188001E
:10267C00104078000080FB00000978001B0020004F
:10268C000C0020002E10900000057800E7F80700E1
:10269C00720147004E089000DE089000A1018800EE
:1026AC00104078000080FB004800DD00120940005B
:1026BC001B0020000C0020002E109000000578005C
:1026CC00DAF8070072004700620140004E089000E3
:1026DC00DE089000A1018800104078000080FB000B
:1026EC00000978001B0020000C0020002E10900028
:1026FC0000057800CDF80700720047006201400029
:10270C004E089000DE089000A1018800104078006F
:10271C000080FB004800DD00120940001B00200077
:10272C000C0020002E10900000057800BFF8070068
:10273C004F05BE00618B2000680047001108150092
:10274C00818B20006A00470011881500D062A90017
:10275C000020EF0060079800EE0090006600470034
:10276C001008E1006D0031004E089000DE0890006A
:10277C00600F9800710F9800EE0090006A004700FF
:10278C001008E10061003E00808B20001058E10031
:10279C005E0031000020EF00000F98008E089000C2
:1027AC00680057001008E100580031006E089000D6
:1027BC00FE089000400F9800510F98008C9FBE00AF
:1027CC008A9FBE00A0458000000001004F05BE009E
:1027DC004F06BE000020EF00605798000620EF0067
:1027EC00640047001018E100420031006E50900068
:1027FC006004E10010003A004E089000DE089000E2
:10280C00A10188001040780020479800780047000C
:10281C008C9FBE008A9FBE001B0020000C00200075
:10282C000005780081F807004F05BE004F06BE007A
:10283C0000C8B30060579800760047009080FB00FA
:10284C00620047001080FB00008060000500320031
:10285C007200470000A0EC00100078000007980000
:10286C000300370072004700100078000007980042
:10287C00680047001018E10016003E000020EF0031
:10288C007007980003017800FE0090006800570064
:10289C001008E1000D003100821F78008C9FBE00F3
:1028AC008A9FBE000E05900070458000000001005C
:1028BC004F05BE004F06BE004F01780011002000EE
:1028CC006E00470010884000EFFF37008200780050
:1028DC000100370083007800760047001080FB0071
:1028EC004100DE0060579800618040008001780054
:1028FC00BBFF370061804500800578008E08900092
:10290C007000470061884000A4FF3700EE00900083
:10291C006C004700618840008FFF3700D062A80030
:10292C00CF0678004F0678000080FA000000060001
:00293C009B
:10293C004000FA008C1F78008D1F78004EB897006D
:10294C0040BF9F001C1F98002D1F980020032000E3
:10295C00000047008A9FBE002B0020000C002000C6
:10296C000005780031F807001E189000AE18900092
:10297C00A1018800104078000080FB00100798002F
:10298C0020032000000047001B0020000C0020004A
:10299C000005780025F807001E189000AE1890006E
:1029AC00A1018800104078000080FB004801DD0088
:1029BC00E20047006200470011084100200320009C
:1029CC00000047001B0020000C00200000057800D0
:1029DC0016F807001E189000AE189000A101880090
:1029EC00104078000080FB000007980020032000B6
:1029FC00000047001B0020000C00200000057800A0
:102A0C000AF807001E189000AE189000A10188006B
:102A1C00104078000080FB004801DD00E00047001A
:102A2C00600047001108410020032000000047000F
:102A3C001B0020000C00200000057800FBF70700AD
:102A4C004F05BE00618B200068004700110815007F
:102A5C00818B20006A004700118815000C20EF00C4
:102A6C00860178007018E10026003100F200470062
:102A7C004118DD00008140001E189000AE18900037
:102A8C00A1018800104078000080FB00000978004C
:102A9C002003200000004700701F98008C9FBE0090
:102AAC008A9FBE001B0020000C002000000578004F
:102ABC00DEF70700F20047004118DD0000814000FE
:102ACC001E189000AE189000A101880010407800EC
:102ADC000080FB004800DD00120940001B002000B4
:102AEC000C0020007E18900000057800CFF707003E
:102AFC004F05BE004F06BE00618341008601780081
:102B0C00D8FF3700D062A9000020EF0030079800F2
:102B1C00BE009000620047001008E100690031001F
:102B2C001E189000AE189000301F9800411F98009E
:102B3C00BE0090006A0047001008E1005D003E00F6
:102B4C00808B20001058E1005A0031000020EF006B
:102B5C00000F98008E089000680057001008E100E4
:102B6C00540031003E189000CE189000101F9800B1
:102B7C00211F98008C9FBE008A9FBE00A04580003C
:102B8C00000001004F05BE004F06BE000620EF00FE
:102B9C00600047001018E100400031000600AE0054
:102BAC00090037006C0047001080FB006F006000CC
:102BBC00F20047004100DD0000804000100078006A
:102BCC0020079800180037001E189000AE189000CF
:102BDC00A101880010407800404F9800200320008D
:102BEC00000047008C9FBE008A9FBE001B00200087
:102BFC000C002000000578008CF707004F05BE0084
:102C0C004F06BE006C0047001080FB004400DE0045
:102C1C00F20047000080FB004100DD000080400016
:102C2C001000780020079800680047001018E10099
:102C3C0016003E000020EF0070079800030178009A
:102C4C00FE009000680057001008E1000D003100F4
:102C5C00821F78008C9FBE008A9FBE002E059000BC
:102C6C0070458000000001004F05BE004F06BE00FD
:102C7C004F017800110020006E00470010884000C2
:102C8C00EFFF3700020078000100370003007800E6
:102C9C000020EC0080017800BDFF3700618045000A
:102CAC00800578008E089000700047006188400015
:102CBC00A8FF3700BE009000660047006188400006
:102CCC0093FF3700D062A800CF0678004F0678003B
:082CDC000080FA000000060070
:101B3C002202FA008C1F78008D1F78004EB8970097
:101B4C0040BF9F001C0F9A002D0F9A0020212000EF
:101B5C00000047008A9FBE002B0020000C002000D4
:101B6C0000057800B1FB07001E089200AE08920039
:101B7C00A1018800104078000080FB00200798002D
:101B8C0020212000000047001B0020000C0020003A
:101B9C0000057800A5FB07001E089200AE08920015
:101BAC00A1018800104078000080FB004801DD0096
:101BBC00E400470064004700110841002021200088
:101BCC00000047001B0020000C00200000057800DE
:101BDC0096FB07001E089200AE089200A101880037
:101BEC00104078000080FB00100798002021200096
:101BFC00000047001B0020000C00200000057800AE
:101C0C008AFB07001E089200AE089200A101880012
:101C1C00104078000080FB004801DD00E200470026
:101C2C0062004700110841002021200000004700FD
:101C3C001B0020000C002000000578007BFB070037
:101C4C004F05BE00618B20006A004700110815008B
:101C5C00818B20006C004700118815000C20EF00D0
:101C6C0086017800001020000018E10026003100E9
:101C7C00F20047004118DD00008140001E08920070
:101C8C00AE089200A1018800104078000080FB0093
:101C9C0000097800202120000000470000179A005E
:101CAC008C9FBE008A9FBE001B0020000C002000F1
:101CBC00000578005DFB0700F20047004118DD00CD
:101CCC00008140001E089200AE089200A10188001D
:101CDC00104078000080FB004800DD001209400035
:101CEC001B0020000C0020000E1092000005780054
:101CFC004EFB07004F05BE004F06BE00618341003E
:101D0C0086017800D7FF3700D062A9000020EF00D1
:101D1C0040079800CE009000640047001008E100D6
:101D2C00580031001E089200AE089200300F9A0045
:101D3C00410F9A00CE0090006C0047001008E100A3
:101D4C004C003E00808B20001058E100490031000F
:101D5C000020EF00000F98008E08900068005700DC
:101D6C001008E100430031003E089200CE089200BA
:101D7C00100F9A00210F9A008C9FBE008A9FBE0004
:101D8C00A0458000000001004F05BE004F06BE00BC
:101D9C000020EF0030079800BE0090006200470062
:101DAC001008E1002D0031001E089200AE089200D0
:101DBC00A101880010407800F20047000080FB0071
:101DCC004100DD0000804000100078000007980002
:101DDC0020212000000047008C9FBE008A9FBE007F
:101DEC001B0020000C002000000578000FFB0700F2
:101DFC004F05BE004F06BE00BE0090006A004700B3
:101E0C001008E10011003E000020EF007007980060
:101E1C00FE009000680057001008E1000B00310034
:101E2C008C9FBE008A9FBE000E05900070458000FE
:101E3C00000001004F05BE004F06BE00110020003F
:101E4C006E00470010884000F1FF3700BE00900084
:101E5C006600470061884000CFFF37006180450075
:101E6C00800578008E089000700047006188400063
:101E7C00B9FF3700CE009000680047006188400031
:101E8C00A4FF3700D062A800CF0678004F06780078
:081E9C000080FA0000000600BE
:101EA4001A00FA008C1F78008D1F78004EB8970036
:101EB40040BF9F001C0F98002D0F98007200470030
:101EC4008A9FBE002B0020000C0020000005780033
:101ED400D8FA07001E089000AE089000A1018800FF
:101EE400104078000080FB00100798007200470043
:101EF4001B0020000C00200000057800CDFA07002C
:101F04001E089000AE089000A101880010407800DF
:101F14000080FB004801DD00E2004700620047004A
:101F240011084100720047001B0020000C00200033
:101F340000057800BFFA07001E089000AE08900064
:101F4400A1018800104078000080FB000007980081
:101F5400720047001B0020000C00200000057800E0
:101F6400B4FA07001E089000AE089000A101880092
:101F7400104078000080FB004801DD00E0004700CD
:101F84006000470011084100720047001B00200058
:101F94000C00200000057800A6FA07004F05BE00DB
:101FA400618B20006E00470011081500818B200012
:101FB4007000470011881500D062A9000020EF00CE
:101FC40030079800BE009000620047001008E1004E
:101FD400610031001E089000AE089000300F980098
:101FE400410F9800BE009000700047001008E10007
:101FF40055003E00808B20001058E1005200310053
:102004000020EF0060079800EE0090006800570081
:102014001008E1004C0031003E089000CE0890000A
:10202400100F9800210F98008C9FBE008A9FBE005D
:10203400A0458000000001004F05BE004F06BE0011
:102044000020EF0020079800AE00900060004700D9
:102054001008E100360031001E089000AE08900020
:10206400A1018800104078000080FB004007980020
:10207400720047008C9FBE008A9FBE001B00200098
:102084000C002000000578006AFA07001E08900082
:10209400AE089000A1018800104078000080FB0089
:1020A4004801DD00E80047006800470011084100CE
:1020B400720047001B0020000C002000000578007F
:1020C4005CFA07004F05BE004F06BE00AE0090004C
:1020D4006E0047001008E10011003E000020EF00F0
:1020E40050079800DE009000680057001008E100D7
:1020F4000B0031008C9FBE008A9FBE004E059000ED
:1021040070458000000001004F05BE004F06BE0070
:10211400110020006A00470010884000F1FF3700DA
:10212400AE0090006400470061884000C6FF37009D
:102134006180450080057800EE0090006C00470047
:1021440061884000B0FF3700BE0090006600470081
:10215400618840009BFF3700D062A800CF0678005A
:0C2164004F0678000080FA000000060022
:1036C8000000FA008A1F7800EDFD0700F4FD0700EE
:1036D8008089200010457800FAFD0700A1892000A4
:1036E8001100E1000060EF00010031000060EC0013
:0C36F8004F0578000080FA00000006007A
:102E88000000FA00C7A2A800C782A800C762A9006C
:102E9800CB62A900C742A8000080FA000000060023
:002EA8002A
:102EA8000000FA009AF7070099F7070098F707005B
:102EB80097F7070096F7070095F707000080FA00D4
:042EC8000000060000
:100D1800572120000E20ED00FEFF3A0000000000E1
:040D280000000600C1
:102ECC000000FA000A85FB00D145800001000100DA
:082EDC000080FA00000006006E
:100C6C000000FA006F50E10007003600F00055005C
:100C7C00100020000100DD008080EA00A03220007E
:100C8C001088600005003700100020000A00DD000D
:100C9C008080EA00C0322000108860004A19880069
:100CAC002023A8002003AF0001003700FDFF370010
:100CBC002003A9000083BF000080FA00000006009A
:000CCC0028
:100C04000000FA00100020000A00DD008080EA00E5
:100C1400C0362000108860004A1B88006023A800AA
:100C24006003AF0001003700FDFF37006003A90037
:0C0C34004083BF000080FA0000000600B2
:103F90000800FA00904580004100DE000000550056
:103FA000800078006000E10002003D000220EF0088
:103FB00006003700608B20001008E1000300390084
:103FC000B0458000E10050000000370090458000BF
:103FD0000020ED004100DE000000460000017800F6
:103FE0006000E10002003D000020EF000700370004
:103FF000608B20001010E10003003900B045800004
:104000000020ED000100370002007800809FBE0014
:104010008C9FBE008A9FBE000B067800800578004A
:104020000105780047F307004F05BE004F06BE00AC
:104030004F00BE008C9FBE008A9FBE000D06780018
:1040400080057800010578003EF307004F05BE00AB
:104050004F06BE008C9FBE008A9FBE000A067800F5
:104060000B0578008D05780097F307004F05BE001B
:104070004F06BE008C9FBE008A9FBE000B057800D5
:104080008D05780090F307004F05BE004F06BE0077
:10409000208620001000E000730032008045800080
:1040A00020079800904580003007980090458000D8
:1040B0000020EC00C100DE00010045000005780092
:1040C00001804500800578009045800000A0EC004C
:1040D000C100DE0001005600000678000180560095
:1040E00080067800608620001000E0004600320064
:1040F000004380006000E10021003A001B079800A7
:10410000620047001068E1001C0039008B805600F7
:1041100062004700108015008C9FBE008A9FBE0081
:104120008106780000067800FB428000EA428000A9
:10413000AEF307004F05BE004F06BE008A9FBE00CB
:104140001B0020000005780016F207004F05BE0096
:104150008C9FBE008A9FBE008C0578001E069000D2
:10416000F8F207004F05BE004F06BE009E0090000B
:104170006200470061884000E1FF370021003700FE
:104180000A079800600047001060E1001D00390038
:104190008A00560060004700100015008C9FBE008A
:1041A0008A9FBE008106780000067800FB428000EE
:1041B000EA4280008DF307004F05BE004F06BE00A7
:1041C0008A9FBE001B00200000057800F5F1070063
:1041D0004F05BE008C9FBE008A9FBE000E06900059
:1041E0000B0578008D05780037F307004F05BE00FA
:1041F0004F06BE008E0090006000470061884000BE
:10420000E0FF3700140037008A9FBE001B0020002B
:104210002A438000E3F107004F05BE001B0798000A
:10422000620047001068E1000B0039008C9FBE005F
:104230008A9FBE008C0578001E069000C1F2070020
:104240004F05BE004F06BE009E0090006200470072
:1042500061884000F2FF37002E0090008045880002
:104260003E009000904588000080FA0000000600A3
:004270004E
:100D44000200FA000B50E100030034000A007800AE
:100D54000B057800800578006050E10002003D003A
:100D64001420EF0004003700608B20001050E100D5
:100D740001003900510037006058E10001003D00D6
:100D84004E003700608B20001058E100030039004A
:100D9400B04580000020ED008005780010002000A0
:100DA400000798008E009000208B20001008E100BE
:100DB40042003E008E0090000E0090006100600032
:100DC4006000E10002003A00E080100000003700FB
:100DD4004188DE0000017800000046006000E10068
:100DE4000500350082004600808B20001008E100D9
:100DF40001003100010037002C003700708520000D
:100E0400104078006004E10019003A00D062A900A3
:100E1400020046008C1F78008A9FBE00800578007F
:100E2400A0458000000001004F05BE004F06780079
:100E34008A0078000B08E1000B003E00811F780057
:100E44008C1F78008A9FBE008A4580007045800010
:100E5400000001004F05BE004F067800CF00780067
:100E64000220EC00F3FF3700D062A8000F00370027
:100E74000A0078000B00E1000C003E00801F78009F
:100E84008C1F78008A9FBE008C0578008C458000FA
:100E9400000578007CFE07004F05BE004F06780071
:100EA4004F0078000020EC00F2FF37008E00900025
:100EB4006000470061884000BAFF37000080FA00F4
:040EC4000000060024
:100EC8000200FA000B50E100030034000A00780029
:100ED8000B057800800578006050E10002003D00B5
:100EE8001420EF0004003700808B20001050E10030
:100EF80001003900390037006058E10001003D0069
:100F080036003700808B20001058E10003003900BC
:100F1800C04580000020ED0080057800100020000A
:100F2800000798008E009000208B20001008E10038
:100F38002A003E008E0090000E00900061006000C4
:100F48006000E10002003A00E08010000000370075
:100F58004188DE0000017800000046006000E100E2
:100F68000500350082004600608B20001008E10073
:100F78000100310001003700140037000A00780032
:100F880082007800000178000B10E1000F003E009D
:100F980001004600811F7800821F78008C1F7800AE
:100FA8008A9FBE008C458000820578000005780085
:100FB80034FE07004F05BE004F0678004F01780049
:100FC800CF0078000420EC00EFFF37008E0090007F
:100FD8006000470061884000D2FF37000080FA00B7
:040FE80000000600FF
:100FEC000800FA008A1F78008B1F78008C1F78008D
:100FFC006060E10002003A000A00780050003700FF
:10100C000D60E10002003A000B0078004C00370044
:10101C0066014700E3004700600047008C9FBE005C
:10102C008B1F780082067800010678008005780016
:10103C0000FF0700CF05780067014700E400470078
:10104C006100470082067800010678000B057800E5
:10105C0080057800F7FE07004F06BE000C017800F3
:10106C008001EB00610047009080FB0060004700AE
:10107C001080FB0000805000CF80DE0050FE070087
:10108C008C9FBE000D0178008001EB000082EB000C
:10109C0084FE07004F06BE00E001470062014700D6
:1010AC00134940000C0178008001EB0064004700FC
:1010BC009080FB00630047001080FB000080500014
:1010CC00CF80DE003EFE07008C9FBE000D01780035
:1010DC008001EB000082EB0072FE07004F06BE00A1
:1010EC00E301470065014700134940000C017800FB
:1010FC008001EB00670047009080FB006600470012
:10110C001080FB0000805000CF80DE002CFE07001A
:10111C000D0178008001EB000082EB0061FE0700FE
:10112C00660147001281FB008001EB0000004100CA
:10113C0000467800DE4590002E459000E0FE07004A
:10114C004F067800CF0578004F0578000080FA0034
:04115C000000060089
:100C40000000FA004B50DE004300DD00804D7800CC
:100C50004550DE004200DD00004E78004350DD00CC
:0C0C6000804E78000080FA0000000600C2
:100CCC000000FA000A80FB004300DE0000457800BB
:100CDC000080FB00CB00DD000B80FB004200DE003F
:100CEC00804578000080FB004500DD0080807000AE
:100CFC000C80FB004300DE00004678000080FB0007
:0C0D0C00008070000080FA00000006006B
:1037C8008A1F78008B1F78008C1F78008D1F780067
:1037D80000013700A08D2800110020000006BE005F
:1037E8005B042000BA06200010002000801F78002B
:1037F800A60107002F00B1009800200077352200AD
:103808000E20ED00FEFF3A001020ED00FCFF3A000C
:103818000F013700A08D2800110020000006BE000F
:103828005B042000BA06200010002000801F7800EA
:10383800960107002F00B10098002000773522007C
:103848000E20ED00FEFF3A001020ED00FCFF3A00CC
:10385800FF00370040B02900110020000006BE001C
:103868005B042000BA06200010002000801F7800AA
:10387800860107002F00B10098002000773522004C
:103888000E20ED00FEFF3A001020ED00FCFF3A008C
:10389800EF003700E0D22A00110020000006BE0029
:1038A8005B042000BA06200010002000801F78006A
:1038B800760107002F00B10098002000773522001C
:1038C8000E20ED00FEFF3A001020ED00FCFF3A004C
:1038D800DF00370080F52B00110020000006BE0035
:1038E8005B042000BA06200010002000801F78002A
:1038F800660107002F00B1009800200077352200EC
:103908000E20ED00FEFF3A001020ED00FCFF3A000B
:10391800CF00370020182D00110020000006BE003F
:103928005B042000BA06200010002000801F7800E9
:10393800560107002F00B1009800200077352200BB
:103948000E20ED00FEFF3A001020ED00FCFF3A00CB
:10395800BF003700C03A2E00110020000006BE004C
:103968005B042000BA06200010002000801F7800A9
:10397800460107002F00B10098002000773522008B
:103988000E20ED00FEFF3A001020ED00FCFF3A008B
:10399800AF00370080202A00010020000006BE008A
:1039A8005B042000BA06200010002000801F780069
:1039B800360107002F00B10098002000773522005B
:1039C8000E20ED00FEFF3A001020ED00FCFF3A004B
:1039D8009F00370020432B00010020000006BE0096
:1039E8005B042000BA06200010002000801F780029
:1039F800260107002F00B10098002000773522002B
:103A08000E20ED00FEFF3A001020ED00FCFF3A000A
:103A18008F00370080202A00010020000006BE0029
:103A28005B042000BA06200010002000801F7800E8
:103A3800160107002F00B1009800200077352200FA
:103A48000E20ED00FEFF3A001020ED00FCFF3A00CA
:103A58007F003700C03A2E00110020000006BE008B
:103A68005B042000BA06200010002000801F7800A8
:103A7800060107002F00B1009800200077352200CA
:103A88000E20ED00FEFF3A001020ED00FCFF3A008A
:103A98006F00370020182D00110020000006BE001E
:103AA8005B042000BA06200010002000801F780068
:103AB800F60007002F00B10098002000773522009B
:103AC8000E20ED00FEFF3A001020ED00FCFF3A004A
:103AD8005F00370080F52B00110020000006BE00B3
:103AE8005B042000BA06200010002000801F780028
:103AF800E60007002F00B10098002000773522006B
:103B08000E20ED00FEFF3A001020ED00FCFF3A0009
:103B18004F003700E0D22A00110020000006BE0046
:103B28005B042000BA06200010002000801F7800E7
:103B3800D60007002F00B10098002000773522003A
:103B48000E20ED00FEFF3A001020ED00FCFF3A00C9
:103B58003F00370040B02900110020000006BE00D9
:103B68005B042000BA06200010002000801F7800A7
:103B7800C60007002F00B10098002000773522000A
:103B88000E20ED00FEFF3A001020ED00FCFF3A0089
:103B98002F003700A08D2800110020000006BE006D
:103BA8005B042000BA06200010002000801F780067
:103BB800B60007002F00B1009800200077352200DA
:103BC8000E20ED00FEFF3A001020ED00FCFF3A0049
:103BD8001F0037006050E100FEFE32006150E10036
:103BE8000CFF32006250E1001AFF32006350E1001E
:103BF80028FF32006450E10036FF32006550E100D2
:103C080044FF32006650E10052FF32006750E10085
:103C180060FF32006850E1006EFF32006950E10039
:103C28007CFF32006A50E1008AFF32006B50E100ED
:103C380098FF32006C50E100A6FF32006D50E100A1
:103C4800B4FF32006E50E100C2FF3200D1FF3700EE
:103C5800CF0678004F067800CF0578004F0578002A
:043C68000000060052
:108CB80001802000808728002B000900B018780068
:108CC800B0587800A1852000808D28000000090098
:108CD800B018780091852000108D2800B0587800D1
:048CE8000000060082
:1044100000100000360000002B000000000000002B
:10442000000000000000000000000000000000008C
:10443000000000000000000000000000000000007C
:10444000000000000000000000000000000000006C
:10445000200000000000000000000000200000001C
:1044600021000000210000002108000020000000C1
:1044700020000000200000002000000020000000BC
:1044800020000000000000002000000020000000CC
:1044900000000000000000000000000020000000FC
:1044A000000000000000000000000000000000000C
:1044B00000000000000000000000000000000000FC
:1044C00000000000000000000000000000000000EC
:1044D00000000000000000000000000000000000DC
:1044E00000000000000000000000000000000000CC
:1044F000000000000000000020000000200000007C
:10450000000000000000000020000000200000006B
:10451000200000000000000020000000200000003B
:10452000000000002000000020000000000000004B
:10453000000000002000000000000000000000005B
:10454000000000000000000000000000000000006B
:10455000000000000000000000000000000000005B
:10456000000000000000000000000000000000004B
:10457000000000000000000000000000000000003B
:10458000000000000000000020000000000000000B
:1045900000000000200000000000000020000000DB
:1045A000000000000000000000000000000000000B
:1045B00000000000000000002000000020000000BB
:1045C000200000002000000000000000210000008A
:1045D000200000004000000020000000200000003B
:1045E00020000000000000000000000000000000AB
:1045F00000000000000000000000000000000000BB
:1046000000000000000000000000000000000000AA
:10461000000000000000000000000000000000009A
:10462000200000000000000000000000000000006A
:10463000000000002000000000000000200000003A
:10464000000000000000000000000000000000006A
:10465000000000002000000020000000000000001A
:1046600020000000200000000000000020000000EA
:104670000000000020000000610800002100000090
:1046800041080000200000000000000000000000C1
:10469000000000000000000000000000000000001A
:1046A000000000000000000000000000000000000A
:1046B00000000000000000000000000000000000FA
:1046C00000000000000000000000000000000000EA
:1046D000200000000000000000000000200000009A
:1046E00000000000000000002000000000000000AA
:1046F00000000000000000000000000000000000BA
:104700000000000020000000200000002000000049
:104710002000000020000000200000002000000019
:1047200020080000410800004108000020000000AF
:104730002000000000000000000000000000000059
:104740000000000020000000200000000000000029
:104750002000000000000000000000000000000039
:104760002000000000000000000000002000000009
:104770002000000000000000000000000000000019
:104780000000000020000000000000000000000009
:1047900020000000200000002000000000000000B9
:1047A00020000000000000000000000000000000E9
:1047B000000000004108000041000000410000002E
:1047C0002000000000000000200000004108000060
:1047D000200800004108000021080000000000003F
:1047E00000000000000000002000000000000000A9
:1047F0000000000020000000000000002000000079
:1048000000000000000000000000000000000000A8
:104810000000000000000000000000002000000078
:104820000000000000000000000000000000000088
:104830000000000000000000000000002000000058
:104840000000000000000000200000000000000048
:104850000000000020000000000000000000000038
:1048600020000000200000002000000000000000E8
:10487000200000000000000041080000611000005E
:10488000411000004108000000000000000000008E
:1048900020000000000000000000000000000000F8
:1048A00000000000000000000000000020000000E8
:1048B00000000000000000000000000000000000F8
:1048C00000000000000000002000000000000000C8
:1048D00000000000000000002000000000000000B8
:1048E00000000000000000000000000000000000C8
:1048F00000000000000000000000000000000000B8
:104900002000000020000000200000000000000047
:10491000000000002000000020000000400800000F
:10492000200000004108000061080000410800006C
:1049300041080000210800002000000000000000E5
:104940002000000000000000000000002000000027
:104950000000000000000000200000000000000037
:104960000000000000000000200000000000000027
:104970000000000000000000000000000000000037
:104980000000000000000000000000000000000027
:1049900000000000000000000000000020000000F7
:1049A00020000000200000000000000000000000C7
:1049B0000000000020000000200000002000000097
:1049C000000000004108000020080000200800004E
:1049D00061180000611800006118000061100000FB
:1049E0002108000020000000200000002008000036
:1049F00000000000000000000000000000000000B7
:104A000000000000000000000000000000000000A6
:104A10000000000000000000000000000000000096
:104A20002000000000000000000000000000000066
:104A30000000000000000000200000000000000056
:104A40000000000000000000200000002000000026
:104A500020000000410800002000000020000000AD
:104A60000000000020000000410800004108000094
:104A70002008000020000000410800008120000004
:104A80008128000062280000621000002000000061
:104A900000000000000000000000000020000000F6
:104AA0000000000000000000000000000000000006
:104AB00020000000200000000000000000000000B6
:104AC00020000000000000000000000020000000A6
:104AD0002000000000000000200000002000000076
:104AE0002000000021000000200000002000000045
:104AF0000000000000000000200000000000000096
:104B000020000000200000004008000020000000FD
:104B10000000000021080000410800000000000023
:104B20002000000061100000A1280000C238000031
:104B30008230000041180000200800002000000022
:104B40002000000000000000000000000000000045
:104B500000000000200000002000000020000000F5
:104B600020000000000000002000000020000000E5
:104B700020000000000000000000000020000000F5
:104B80000000000000000000000000002000000005
:104B90002000000020000000200000002000000095
:104BA00000000000200000002000000020000000A5
:104BB0000000000020000000200000002000000095
:104BC0004108000020000000000000002008000054
:104BD00081200000C2380000E3400000C340000014
:104BE00061200000200800002000000000000000FC
:104BF000000000002108000000000000000000008C
:104C0000210800002000000000000000000000005B
:104C10000000000020000000000000002000000054
:104C20002000000000000000200000000000000044
:104C30000000000020000000200000002000000014
:104C40000000000000000000200000002000000024
:104C500020000000200000000000000020000000F4
:104C60002000000020000000400800004008000074
:104C7000610800004008000061100000A230000040
:104C8000C350000004590000C34000008128000008
:104C900020080000200800000000000020000000A4
:104CA000210800002000000020000000200000007B
:104CB00000000000000000000000000000000000F4
:104CC00020000000000000000000000000000000C4
:104CD000210800002000000020000000200000004B
:104CE000410800000000000000000000000000007B
:104CF0002000000020000000000000000000000074
:104D000020000000200000004108000040080000D2
:104D100020000000400800002008000020080000DB
:104D20004008000061100000C3380000026100006C
:104D300022710000E16000006138000021100000D5
:104D400021080000200800002000000000000000F2
:104D500020000000200000002000000020000000D3
:104D60000000000020000000000000002000000003
:104D70000000000000000000000000002000000013
:104D800020000000200000002000000000000000C3
:104D900000000000000000002000000020000000D3
:104DA00020000000000000002000000020000000A3
:104DB00020000000410800004108000041080000F8
:104DC00041080000200800004008000041100000D9
:104DD00061180000C4480000237900002289000007
:104DE00002810000814800006110000020080000DE
:104DF0002000000041080000000800002000000022
:104E00002000000000000000000000002000000062
:104E10002000000000000000200000002000000032
:104E20002000000000000000000000000000000062
:104E300020000000200000002000000020000000F2
:104E400020000000200000004100000020000000C1
:104E50002000000041000000400800002008000081
:104E6000410800004108000041080000410800001E
:104E7000410800006108000061100000A228000045
:104E800022610000A4990000A5A900002399000058
:104E9000A15000008120000081180000410800009E
:104EA00041080000410800002008000041080000FF
:104EB0000000000020000000410800000000000089
:104EC00000000000200000002000000000000000A2
:104ED0000000000020000000200000002000000072
:104EE0000000000000000000210800004108000050
:104EF0000000000020000000200000004108000029
:104F000020080000410800004108000021080000BE
:104F100041100000611000006108000061100000F5
:104F20006110000062200000A340000063810000C7
:104F300003B2000042BA0000A0990000A150000096
:104F400081280000411000004108000020080000F6
:104F5000410800004108000020080000200800006F
:104F60000000000000000000200000002000000001
:104F700020000000000000002000000020000000D1
:104F800000000000000000002000000020000000E1
:104F90002000000021000000200000002000000090
:104FA000000000002108000041080000411000003E
:104FB00041080000410800002108000061100000C5
:104FC000621000004110000062180000821800000A
:104FD00062200000E3580000C5A90000C2CA00001A
:104FE000C2CA0000C1A90000A16000006128000041
:104FF0004110000041100000611000002008000076
:10500000200800002108000020000000000000002F
:105010000000000000000000000000000000000090
:105020002000000020000000200000000000000020
:105030002000000000000000200000002000000010
:1050400020000000200000002000000020080000D8
:105050002008000061080000611000004108000005
:10506000611000006110000041100000621000009B
:105070006210000082180000A2180000C228000080
:1050800083710000C4D20000A1EB000041E30000E6
:10509000E2C1000002790000A230000062180000A6
:1050A00061180000421800004110000020080000B4
:1050B0002008000020080000200800002000000058
:1050C0002008000020000000000000002000000078
:1050D0002000000020000000000000002000000070
:1050E00000000000000000002000000000000000A0
:1050F00041080000200000004000000020080000DF
:10510000410800004108000061080000610800003B
:105110006110000061100000811000008218000082
:105120008220000063300000C350000062B2000023
:10513000C2FB000042FC0000E1F3000043CA000093
:105140000381000082480000423000004118000046
:105150006218000042180000411000002008000002
:10516000410800002008000061080000410800001C
:1051700020080000200000000000000020000000C7
:1051800020000000000000002000000000000000DF
:105190002000000000000000210000006108000065
:1051A0004008000040080000200000004008000007
:1051B000611000004110000041100000611000006B
:1051C00061180000A2280000A2300000C3380000CF
:1051D0008340000022810000A2F3000066FD000071
:1051E00085FD000063FC000083D2000023910000D5
:1051F0006360000062400000812000006118000030
:105200008218000041100000200800004108000042
:105210004008000041080000200000004108000094
:105220002108000020000000000000002000000015
:10523000000000002000000020000000000000002E
:1052400000000000200000002000000020000000FE
:1052500061080000610800006108000041100000C2
:105260006110000041100000611800008220000061
:10527000A3300000C4400000C5480000C460000026
:1052800063D20000C9FD00004AFF0000C7FE000015
:10529000E4FC0000A5E20000A4B90000C4900000F6
:1052A0006258000081380000812000008118000051
:1052B000611000004008000061100000200800009C
:1052C0000000000020000000400800002000000056
:1052D00021080000000000000000000000000000A5
:1052E0002000000020000000200000004108000015
:1052F00020000000200000006108000040080000BD
:10530000210800006110000040080000811000002A
:10531000A22000008228000082280000A33800009C
:10532000E3500000E468000084A1000088FD000054
:10533000F0FF0000F2FF0000CDFF000048FD00007C
:10534000E9FA000067F20000C5D90000C5A000001E
:1053500062500000613000006118000081180000F8
:1053600081100000610800004108000020000000DA
:10537000400800004108000020080000200800004C
:10538000200000002000000020000000210000009C
:10539000200000002000000021080000200800007C
:1053A00041080000410800004008000041080000DA
:1053B00061080000611000008218000081180000E0
:1053C000A2280000C2380000E2480000236100006B
:1053D0002389000004E40000F4FF0000FDFF00004A
:1053E000FDFF0000F6FF00004BFE00000BFC00007C
:1053F0006BFB000008FB0000E6D90000C37800004A
:10540000833800008330000082200000611000001B
:1054100081100000611000004110000041080000F0
:1054200040080000200800002000000020000000CC
:105430002108000040080000200000004108000092
:1054400020000000000000002000000021080000F3
:10545000200800004008000041080000610800002A
:10546000621800008218000083200000C33800008A
:10547000E4480000246100006889000087BA000049
:1054800012FF0000FFFF0000FFFF0000FFFF000011
:10549000FEFF00006EFF00000BFE00002EFD00006E
:1054A0000EFC0000EAFA0000A5B9000063580000F5
:1054B000833800006220000061180000811800009D
:1054C00081180000410800002000000020000000BA
:1054D00040080000410800002000000041080000D2
:1054E00041080000000000004000000041080000EA
:1054F0002000000000000000200000004108000023
:105500004110000041100000611000006110000017
:1055100082180000A2300000E4500000E4600000A7
:105520006681000027AA0000EDEC0000FFFF0000EC
:10553000FFFF0000FFFF0000FFFF0000FFFF000073
:10554000F8FF00008EFF0000EEFE0000CFFD00001F
:105550004AFC000066EA0000A370000082380000E8
:1055600082300000812000008120000061100000D6
:105570004108000020080000200800004108000049
:10558000400800004008000020000000200000004B
:10559000200000002000000020080000410800005A
:1055A00041080000410800006108000041100000AF
:1055B00041100000621000008218000081200000ED
:1055C000E24000000359000024690000E88900005F
:1055D00069CB000018FF0000FFFF0000FFFF000084
:1055E000FFFF0000FFFF0000FFFF0000FEFF0000C4
:1055F000F8FF0000F3FF00008FFF0000CBFD00006C
:1056000029F3000025790000C3480000823800001B
:1056100061280000611800006110000061100000A6
:105620006110000041080000200800002000000078
:1056300040000000200000000000000041080000C1
:105640004108000040080000410800006108000017
:1056500061080000410800004108000061080000E6
:1056600061100000A2280000A2300000E348000002
:1056700002610000A581000089B20000CFEC0000AB
:10568000FFFF0000FFFF0000FFFF0000FFFF000022
:10569000FFFF0000FFFF0000FFFF0000FDFF000014
:1056A000FCFF0000F8FF0000D1FE00008BEB0000C3
:1056B00066890000C458000082380000812800007C
:1056C000411800004110000041100000611000006E
:1056D00061100000200800002008000020000000E9
:1056E0000000000000000000200000002008000072
:1056F00041080000200000004008000020000000D9
:1057000040080000821800006210000082180000AB
:1057100082200000A33800000351000064710000E3
:105720000592000069CB000076FE0000FFFF00003C
:10573000FFFF0000FFFF0000FFFF0000FFFF000071
:10574000FFFF0000FFFF0000FFFF0000FFFF000061
:10575000FFFF0000BAFF00002EDC0000088A0000F6
:1057600004590000C3480000C3380000822800002C
:1057700041100000410800004108000041080000FD
:105780004008000041080000200000000000000068
:105790002000000020000000200000004108000060
:1057A00041080000410800004108000041100000CD
:1057B0006218000082180000A3200000A220000050
:1057C000C1380000445900008581000045A2000056
:1057D0006DE400009CFF0000FFFF0000FFFF0000E1
:1057E000FFFF0000FFFF0000FFFF0000FFFF0000C1
:1057F000FFFF0000FFFF0000FFFF0000FFFF0000B1
:10580000FFFF000031D50000AA92000025610000D2
:10581000C240000082380000A22800008220000060
:105820006110000061080000200000002008000056
:1058300040080000200000000000000021080000D7
:10584000200000002108000041080000410800007D
:10585000410800004108000041080000411000001C
:1058600082180000A2200000A1280000E2400000F1
:1058700024610000A679000008BB000072F500005A
:10588000FFFF0000FFFF0000FFFF0000FFFF000020
:10589000FFFF0000FFFF0000FFFF0000FFFF000010
:1058A000FFFF0000FFFF0000FFFF0000FFFF000000
:1058B00055DE00002B9B000047690000E45000000B
:1058C0008230000062280000822000008218000060
:1058D00061080000410800002008000020000000CE
:1058E0002008000020080000200000002000000028
:1058F00041080000200000002000000020000000FF
:1059000041080000621000006110000062200000E9
:1059100062200000C2300000034900004361000023
:10592000E58100008CCB000057FE0000FFFF000067
:10593000FFFF0000FFFF0000FFFF0000FFFF00006F
:10594000FFFF0000FFFF0000FFFF0000FFFF00005F
:10595000FFFF0000FFFF0000FFFF0000DAEE000085
:10596000ADAB0000A5710000C150000082380000FE
:105970006230000062200000411000004108000079
:105980006108000041080000200800002008000015
:105990002008000020000000200800000000000097
:1059A00020000000410800006108000041080000DC
:1059B00061100000811800008218000082200000A1
:1059C000A238000003510000436900004592000026
:1059D0002ED40000FAFE0000FFFF0000FFFF0000D1
:1059E000FFFF0000FFFF0000FFFF0000FFFF0000BF
:1059F000FFFF0000FFFF0000FFFF0000FFFF0000AF
:105A0000FFFF0000FFFF00003CF7000010B40000A3
:105A1000C8710000C24800008130000081200000F1
:105A200081180000611000004108000041080000DA
:105A3000621000004108000000000000200000008B
:105A400041080000200000002000000020000000AD
:105A500061100000611000004108000061100000AA
:105A600081100000A1180000C2280000A230000030
:105A70002449000085690000A79A0000D0DC0000DE
:105A80005CFF0000FFFF0000FFFF0000FFFF0000C1
:105A9000FFFF0000FFFF0000FFFF0000FFFF00000E
:105AA000FFFF0000FFFF0000FFFF0000FFFF0000FE
:105AB000FFFF00007DF7000051B4000048720000B5
:105AC00002490000A1300000A2200000611800007F
:105AD0006218000061100000410800004108000049
:105AE00041080000200000002008000041080000DC
:105AF00020080000200800000000000061080000ED
:105B0000611000008110000081100000A118000049
:105B1000A1200000A1280000C130000002490000BF
:105B200084690000289B000070DD0000BCFF0000BD
:105B3000FFFF0000FFFF0000FFFF0000FFFF00006D
:105B4000FFFF0000FFFF0000FFFF0000FFFF00005D
:105B5000FFFF0000FFFF0000FFFF0000FFFF00004D
:105B60009EF70000D3BC000048720000A24800006D
:105B7000623000006220000082200000411000001E
:105B80006110000041080000210800002000000012
:105B9000200000002008000000000000200000009D
:105BA00020080000410800004108000041080000F2
:105BB000611000008210000082180000A220000086
:105BC000A2300000C3380000E450000086710000DD
:105BD0004A9B0000F4E50000FEFF0000FFFF00000C
:105BE000FFFF0000FFFF0000FFFF0000FFFF0000BD
:105BF000FFFF0000FFFF0000FFFF0000FFFF0000AD
:105C0000FFFF0000FFFF0000FFFF00009EF7000005
:105C100054B50000696A0000A23800006228000044
:105C2000822800008220000061100000410800006E
:105C30004108000021080000410800002000000089
:105C40000000000020080000000000002008000004
:105C500021080000610800004108000061100000F8
:105C600041100000821800008220000082300000F5
:105C7000C3400000E4500000E6690000ACA300004F
:105C800036EE0000FFFF0000FFFF0000FFFF0000F6
:105C9000FFFF0000FFFF0000FFFF0000FFFF00000C
:105CA000FFFF0000FFFF0000FFFF0000FFFF0000FC
:105CB000FFFF0000FFFF00009EF7000035B5000069
:105CC000496A0000A3300000A328000082200000E1
:105CD00061100000610800002000000020080000A2
:105CE000200000004108000000000000000000004B
:105CF0002008000020000000200000002108000013
:105D00004108000041080000411000004108000067
:105D100061100000A218000081200000E2300000A5
:105D200021410000E3610000ECA3000098EE0000B8
:105D3000FFFF0000FFFF0000FFFF0000FFFF00006B
:105D4000FFFF0000FFFF0000FFFF0000FFFF00005B
:105D5000FFFF0000FFFF0000FFFF0000FFFF00004B
:105D6000FFFF00007DEF0000D4AC0000EA690000F6
:105D700083380000A22000008110000061080000AC
:105D80004108000041080000200800002008000031
:105D900021080000200000000000000000000000BA
:105DA0002008000020080000200800002108000052
:105DB0004108000041080000610800006110000077
:105DC00081100000A1180000C1280000E238000086
:105DD000E46900000EAC0000BAEE0000FFFF000016
:105DE000FFFF0000FFFF0000FFFF0000FFFF0000BB
:105DF000FFFF0000FFFF0000FFFF0000FFFF0000AB
:105E0000FFFF0000FFFF0000FFFF0000FFFF00009A
:105E10005DEF0000F4A40000E8590000A23000008B
:105E2000811800008110000081100000410800006E
